:020000040000fa
:080000000002040000000000f2
:020000040000fa
:10040000ef822000807f22000001880000000000b1
:10041000050007000c000700460302000000000072
:100420000040da000000fe004440a9000000200067
:100430000000e0000300320000002000a00188005e
:100440004440a80000000600e07b200001002000de
:100450001600370062004000e080480091018800eb
:100460009001ba0062004000e080480091018800dd
:100470009002ba0062004000e08048000002eb00f9
:100480006028e10005003a008301e900070033001d
:10049000038009000059eb00040037006128e100e7
:1004a000010032000082eb00050007009101880086
:1004b0001001ba000200e000e6ff3a00000005006b
:1004c000910188008002780062004000e0804800ce
:1004d0003559ba008301e900080032002559ba00f5
:1004e0008301e900050032000400e000f4ff32005f
:1004f00015d9ba008301e900f1ff3a0000000600b7
:10050000801f78003400f80000c0b300a00188000c
:100510000000fa008a20a9009a20a9001782a900e9
:1005200018c2bf000042b2000004e0000a003a0016
:1005300010c2bf000080fb006041880018c2bf00ed
:10054000644060000004e0000e003200c040800003
:1005500012e2b7000b00370018c2bf006440600011
:100560000004e0000400320010c2bf000080fb0065
:10057000604188000300370010c2bf000080fb000c
:10058000604188001782a8009a20a8000080fa0025
:100590003400f9004f007800004006000000fa0027
:1005a000d2c2a800c002a900c022a900c042a9006e
:1005b000c062a900c082a900c0a2a900c0c2a9004f
:1005c000c0e2a900d601070000c5b300680107001a
:1005d000008c2900b010880020002000d010880076
:1005e0009a20a8000080fa00000006001600fa0019
:1005f000200f980041079800520798006307980061
:100600000000eb00300798000000eb002007980086
:100610000000eb001007980041c0b3004e009000ae
:1006200017010700070037000000eb00000f7800fb
:10063000010037001e0fe800700c20009e0f100014
:10064000fcff3400350107000000e000f6ff320037
:100650006e004700350107006e0047000180200052
:1006600004000900b05878005000b1002e08900036
:100670000180200004000900315878005000b100ca
:100680002e0890000080fa00000006001800fa0012
:10069000881f78000000eb003040880050002000e8
:1006a000c04088000000eb00500798000000eb00fd
:1006b000400798000000eb00300798000000eb00b6
:1006c000200798000000eb0010079800b3ff070018
:1006d00000003700c3c2bf000044b2000004e000c5
:1006e00001003a008680a8000c010700000f780086
:1006f0001e00e0000c0032006c044700720047004e
:100700000a0107007200470004000900305c78000d
:100710005800b1005000b1006c004700204090002c
:100720000080fb00100798006141800060042000f9
:10073000808f50000a003a003e0090000000e00068
:1007400007003a004e0090000000e00004003a006c
:1007500030002000c04088001000200040079800b2
:100760004e009000e10f50000f003a006141800000
:1007700020032000808f50000b003a000000eb00a7
:10078000400798001000200030079800304080009b
:10079000e40f500002003a00500020003040880072
:1007a00050002000c040880030408000e60f50001c
:1007b0000e003a001e0090000000e0000b00320026
:1007c0000040eb000de8b7000040eb000ee8b7007a
:1007d00010c0b3000fe8b7000040eb0010e8b7000e
:1007e00041c0b300d0802000a50007003040800049
:1007f000e50f50000f003a005e0090000000e0009e
:100800000300320060002000304088000200370002
:1008100010002000c040880060418000fe0f5000a2
:1008200004003a00600020003040880010002000e2
:100830005007980030408000e40f500008003a0054
:100840006141800080022000808f500004003a0047
:100850000000eb005007980050002000c0408800c6
:1008600030408000e30f500008003a0060418000f3
:10087000ea0f500005003a0020002000c040880028
:100880004000200030408800c202a80030408000b4
:10089000e20f500014003a0060418000fe0f50004b
:1008a00011003a000040eb000de8b70010c0b300a3
:1008b0000ee8b7000040eb000fe8b7000040eb0087
:1008c00010e8b70041c0b300d08020006c000700e2
:1008d00030002000304088001000200050079800b1
:1008e00050002000c040880030408000e10f5000e0
:1008f00007003a0060418000f40f500004003a0005
:1009000010002000c04088002000200030408800f7
:10091000304080000000e0006eff3a000040eb0035
:100920000de8b70010c0b3000ee8b7000040eb00c0
:100930000fe8b7000040eb0010e8b70010002000ff
:100940003040880041c0b300d08020004c00070038
:1009500060ff37000400fa00000f7800214798007c
:10096000ca42a9001e0078004300de0080407800e3
:100970000174a10000c8b30000c07000d3000700dc
:100980001e00780000404000004040000040400051
:1009900000404000004040008040780000ceb3009e
:1009a00000c060000044a000c80007002e40900076
:1009b000c6000700ca42a8000080fa000000060036
:1009c0000200fa00004f780011479800ca42a900bf
:1009d0001e407800bd0007001e409000bb000700cd
:1009e000ca42a8000080fa00000006000400fa00d5
:1009f00020479800ca42a9002e409000b30007008b
:100a0000c0000700004f7800ca42a8001e80fb000b
:100a10000080fa00000006000400fa0010079800a9
:100a2000ca42a9001e0090004300de00804078000a
:100a30000174a10000c8b30000c07000a30007004b
:100a40001e00900000404000004040000040400078
:100a500000404000004040008040780000ceb300dd
:100a600000c0600099000700a6000700004f780052
:100a7000ca42a8001e80fb000080fa0000000600a9
:100a80000600fa0010079800414798004e40900079
:100a90000040e800804078000000eb00adff070058
:100aa0004e4090000040e800804078001000200098
:100ab000a8ff0700a1cab30020002000a5ff07007f
:100ac00010c0b300004f7800090037001e009000ee
:100ad000904078001e0090000000e8001007980089
:100ae0001e80fb000080e8009aff07001e4fe80010
:100af0009e80fb004e4090000080fb000000e8005c
:100b0000808f5000f1ff350011c0b30070c3b300f7
:100b1000abff07000080fa00000006000000fa00aa
:100b2000504180000080fa00000006000200fa0038
:100b3000000f7800504180000000e0000800320003
:100b40000000eb00504188001e0078004182200028
:100b500004000900315878005000b100010037004e
:100b6000010037001e0078000080fa000000060037
:100b70000200fa00004f78009e407800002020001c
:100b800074ff070041c0b300d0c6b3008cff07005c
:100b90008040eb00d0c6b30089ff07000080fa0058
:100ba000000006003600f800809fbe00829fbe0055
:100bb000849fbe00869fbe00881f78003400f80026
:100bc00000c0b300a00188000400fa0096c0bf0076
:100bd000704060000004e0003300320086c0bf00b7
:100be000704060000004e0002f0032008680a90001
:100bf00020c6b3007dff0700204798002e409000dc
:100c0000614060000004e0000400320011c0b30045
:100c1000b0c1b3006aff0700220037002e409000e9
:100c2000684060000004e0001e0032000030200038
:100c300079ff0700644050001047980010302000f2
:100c400075ff070080407800a0cab30080cf500035
:100c500014003a000040eb00004f78000900370014
:100c60001e84fb001e80fb002030b0006aff0700de
:100c70008040780040822000000044000148780055
:100c80001e4fe8001e4090009e4f1000f4ff3600fb
:100c900011c0b300b0c1b30049ff0700100020002d
:100ca000504188009680a8000080fa003400f900c6
:100cb0004f0478004f03be004f02be004f01be003c
:100cc0004f00be003600f900004006000400fa00a4
:100cd000204798008540a90040128000004f78000e
:100ce0002e4090000080fb004012880085c0bf00ad
:100cf000644060000004e000fcff32000080fa0065
:100d0000000006000000fa000040eb00efff0700c3
:100d1000401280000080fb000080fa000000060006
:100d20000400fa00e01320001012880000002800e0
:100d300000128800e842a900e442a900ca42a800c3
:100d4000c642a900c0e2a900c0c2a900d2c2a80040
:100d5000d2a2a8008680a9009680a8000000eb001f
:100d600050418800e842a9000000eb00000f780025
:100d7000010037001e0fe800b01220009e0f100087
:100d8000fcff3600e842a8000000eb00000f7800ee
:100d9000010037001e0fe800b01220009e0f100067
:100da000fcff360071c0b30050c5b30004ff07005c
:100db00040c5b3000dff0700204798002e4090006b
:100dc0000080fb00670060000000e000f8ff3a00d0
:100dd0000000eb00000f7800010037001e0fe80054
:100de000703e20009e0f1000fcff360011c0b300c3
:100df000b0c1b300f2fe070011c0b300b0c1b30030
:100e0000effe070080c0eb0070c0b300ecfe0700ef
:100e100080c0eb0090c0b300e9fe070080c0eb008b
:100e200030c0b300e6fe070080c0eb0050c0b30046
:100e3000e3fe07000040eb00204798000d0037005c
:100e40002e4090008080fb00c08120000080400088
:100e5000904078002e4090000080fb000000400091
:100e60006b404000d6fe07002e4090000040e80096
:100e7000204798002e409000e74f5000f0ff3600ca
:100e80000000eb00000f7800010037001e0fe800a3
:100e9000703e20009e0f1000fcff360041c0b300e2
:100ea000d0c6b300c6fe07008040eb00d0c6b3003a
:100eb000c3fe070011c0b30010202000a5fe0700ec
:100ec00001c8b30020202000a2fe07008040eb00f4
:100ed000302020009ffe070001c9b30060202000e1
:100ee0009cfe07008040eb007020200099fe070068
:100ef00001c1b3008020200096fe070081cbb30023
:100f000050c7b300aefe070001c4b300d0c7b300a2
:100f1000abfe07008040eb00f0c7b300a8fe07005f
:100f2000f0202000bcfe0700204798002e409000d3
:100f30008080fb00000a200080806000000a200002
:100f4000808f5000f6ff3a0000c7b30008ff07008b
:100f500061cfb30050c6b30099fe070031c2b300a1
:100f600010c0b30096fe070011c0b300b0c1b300bb
:0c0f700093fe07000080fa00000006005d
:020000040000fa
:020000040002f8
:04aff800befa00009d
:020000040000fa
:020000040002f8
:04affc007fbf000013
:020000040000fa
:10000800e0070000e0070000e0070000e00700004c
:10001800e0070000e0070000e0070000e00700003c
:10002800e0070000e0070000e0070000e00700002c
:10003800e0070000e0070000e0070000e00700001c
:10004800e0070000e0070000e0070000e00700000c
:10005800e0070000e0070000e0070000e0070000fc
:10006800e0070000e0070000e0070000e0070000ec
:10007800d2050000e0070000e0070000e0070000ec
:10008800e0070000e0070000e0070000e0070000cc
:10009800e0070000e0070000e0070000e0070000bc
:1000a800e0070000e0070000e0070000e0070000ac
:1000b800e0070000e0070000e0070000e00700009c
:1000c800e0070000e0070000e0070000e00700008c
:1000d800e0070000e0070000e0070000e00700007c
:1000e800e007000080020000e0070000e0070000d1
:1000f800e0070000e0070000e0070000e00700005c
:10010800e0070000e0070000e0070000e00700004b
:10011800e0070000e0070000e0070000e00700003b
:10012800e0070000e0070000e0070000e00700002b
:10013800e0070000e0070000e0070000e00700001b
:10014800e0070000e0070000e0070000e00700000b
:10015800e0070000e0070000e0070000e0070000fb
:10016800e0070000e0070000e0070000e0070000eb
:10017800e0070000e0070000e0070000e0070000db
:10018800e0070000e0070000e0070000e0070000cb
:10019800e0070000e0070000e0070000e0070000bb
:1001a800e0070000e0070000e0070000e0070000ab
:1001b800e0070000e0070000e0070000e00700009b
:1001c800e0070000e0070000e0070000e00700008b
:1001d800e0070000e0070000e0070000e00700007b
:1001e800e0070000e0070000e0070000e00700006b
:0801f800e0070000e007000031
:020000040000fa
:10020800e0070000e0070000e0070000e00700004a
:10021800e0070000e0070000e0070000e00700003a
:10022800e0070000e0070000e0070000e00700002a
:10023800e0070000e0070000e0070000e00700001a
:10024800e0070000e0070000e0070000e00700000a
:10025800e0070000e0070000e0070000e0070000fa
:10026800e0070000e0070000e0070000e0070000ea
:10027800d2050000e0070000e0070000e0070000ea
:10028800e0070000e0070000e0070000e0070000ca
:10029800e0070000e0070000e0070000e0070000ba
:1002a800e0070000e0070000e0070000e0070000aa
:1002b800e0070000e0070000e0070000e00700009a
:1002c800e0070000e0070000e0070000e00700008a
:1002d800e0070000e0070000e0070000e00700007a
:1002e800e007000080020000e0070000e0070000cf
:1002f800e0070000e0070000e0070000e00700005a
:10030800e0070000e0070000e0070000e007000049
:10031800e0070000e0070000e0070000e007000039
:10032800e0070000e0070000e0070000e007000029
:10033800e0070000e0070000e0070000e007000019
:10034800e0070000e0070000e0070000e007000009
:10035800e0070000e0070000e0070000e0070000f9
:10036800e0070000e0070000e0070000e0070000e9
:10037800e0070000e0070000e0070000e0070000d9
:10038800e0070000e0070000e0070000e0070000c9
:10039800e0070000e0070000e0070000e0070000b9
:1003a800e0070000e0070000e0070000e0070000a9
:1003b800e0070000e0070000e0070000e007000099
:1003c800e0070000e0070000e0070000e007000089
:1003d800e0070000e0070000e0070000e007000079
:1003e800e0070000e0070000e0070000e007000069
:0803f800e0070000e00700002f
:020000040000fa
:100f7c002c0800000200000002000000000000002d
:100f8c00000800001c000000000000001c0800000d
:100f9c000800000002000000070605000403020020
:100fac0001550000240800000800000000000000ab
:040fbc000000000031
:020000040000fa
:040fc0000000fe002f
:00000001FF
