:020000040000fa
:080000000002040000000000f2
:020000040000fa
:100400008f832000807f2200000188000000000010
:10041000050007000c0007003e030200000000007a
:100420000040da000000fe004440a9000000200067
:100430000000e0000300320000002000a00188005e
:100440004440a80000000600606e2000010020006b
:100450001600370062004000e080480091018800eb
:100460009001ba0062004000e080480091018800dd
:100470009002ba0062004000e08048000002eb00f9
:100480006028e10005003a008301e900070033001d
:10049000038009000059eb00040037006128e100e7
:1004a000010032000082eb00050007009101880086
:1004b0001001ba000200e000e6ff3a00000005006b
:1004c000910188008002780062004000e0804800ce
:1004d0003559ba008301e900080032002559ba00f5
:1004e0008301e900050032000400e000f4ff32005f
:1004f00015d9ba008301e900f1ff3a0000000600b7
:10050000801f78003400f80000c0b300a00188000c
:100510000000fa008a20a9009a20a9001782a900e9
:1005200018c2bf000042b2000004e0000a003a0016
:1005300010c2bf000080fb00e040880018c2bf006e
:10054000644060000004e0000a003200c040800007
:1005500012e2b7000700370018c2bf006440600015
:100560000004e00003003a0010c2bf000080fb005e
:10057000e04088001782a8009a20a8000080fa00b6
:100580003400f9004f007800004006000000fa0037
:10059000d2c2a800c002a900c022a900c042a9007e
:1005a000c062a900c082a900c0a2a900c0c2a9005f
:1005b000c0e2a9006e01070000c5b30000010700fa
:1005c000008c2900b010880020002000d010880086
:1005d0009a20a8000080fa00000006001600fa0029
:1005e000200f980041079800520798006307980071
:1005f0000000eb00300798000000eb002007980097
:100600000000eb001007980041c0b3004e009000be
:10061000af000700070037000000eb00000f780074
:10062000010037001e0fe800700c20009e0f100024
:10063000fcff3400cd0007000000e000f6ff3200b0
:100640006e004700cd0007006e00470001802000cb
:1006500004000900b05878005000b1002e08900046
:100660000180200004000900315878005000b100da
:100670002e0890000080fa00000006000600fa0034
:100680000000eb003040880050002000c04088008f
:10069000beff070000003700c3c2bf000044b20025
:1006a0000004e00001003a008680a800304080008d
:1006b000e30f500005003a00e0408000ea0f5000d0
:1006c00002003a0020002000c04088003040800036
:1006d000e20f500010003a00e0408000fe0f500092
:1006e0000d003a000040eb000de8b70010c0b30069
:1006f0000ee8b7000040eb000fe8b7000040eb0049
:1007000010e8b70041c0b300d0802000700007009f
:10071000300020003040880030408000e10f500061
:1007200008003a00e0408000f40f500005003a0055
:1007300010002000c04088002000200030408800c9
:10074000c042a800304080000000e000d2ff3a0024
:100750000040eb000de8b70010c0b3000ee8b70092
:100760000040eb000fe8b7000040eb0010e8b700d6
:100770001000200030408800c022a8008001eb005b
:100780000001eb00d18020000e00780093ff0700ed
:1007900080802000040009003e5878005e00b1000f
:1007a000bdff37000400fa00000f780021479800d1
:1007b000ca42a9001e0078004300de008040780095
:1007c0000174a10000c8b30000c07000d30007008e
:1007d0001e00780000404000004040000040400003
:1007e00000404000004040008040780000ceb30050
:1007f00000c060000044a000c80007002e40900028
:10080000c6000700ca42a8000080fa0000000600e7
:100810000200fa00004f780011479800ca42a90070
:100820001e407800bd0007001e409000bb0007007e
:10083000ca42a8000080fa00000006000400fa0086
:1008400020479800ca42a9002e409000b30007003c
:10085000c0000700004f7800ca42a8001e80fb00bd
:100860000080fa00000006000400fa00100798005b
:10087000ca42a9001e0090004300de0080407800bc
:100880000174a10000c8b30000c07000a3000700fd
:100890001e0090000040400000404000004040002a
:1008a00000404000004040008040780000ceb3008f
:1008b00000c0600099000700a6000700004f780004
:1008c000ca42a8001e80fb000080fa00000006005b
:1008d0000600fa0010079800414798004e4090002b
:1008e0000040e800804078000000eb00adff07000a
:1008f0004e4090000040e80080407800100020004a
:10090000a8ff0700a1cab30020002000a5ff070030
:1009100010c0b300004f7800090037001e0090009f
:10092000904078001e0090000000e800100798003a
:100930001e80fb000080e8009aff07001e4fe800c1
:100940009e80fb004e4090000080fb000000e8000d
:10095000808f5000f1ff350011c0b30070c3b300a9
:10096000abff07000080fa00000006000000fa005c
:10097000b04180000080fa00000006000200fa008a
:10098000000f7800b04180000000e0000800320055
:100990000000eb00b04188001e00780001832000b9
:1009a00004000900315878005000b1000100370000
:1009b000010037001e0078000080fa0000000600e9
:1009c0000200fa00004f78009e40780000202000ce
:1009d00074ff070041c0b300d0c6b3008cff07000e
:1009e0008040eb00d0c6b30089ff07000080fa000a
:1009f000000006003600f800809fbe00829fbe0007
:100a0000849fbe00869fbe00881f78003400f800d7
:100a100000c0b300a00188000400fa0096c0bf0027
:100a2000704060000004e0003300320086c0bf0068
:100a3000704060000004e0002f0032008680a900b2
:100a400020c6b3007dff0700204798002e4090008d
:100a5000614060000004e0000400320011c0b300f7
:100a6000b0c1b3006aff0700220037002e4090009b
:100a7000684060000004e0001e00320000302000ea
:100a800079ff0700644050001047980010302000a4
:100a900075ff070080407800a0cab30080cf5000e7
:100aa00014003a000040eb00004f780009003700c6
:100ab0001e84fb001e80fb002030b0006aff070090
:100ac0008040780000832000000044000148780046
:100ad0001e4fe8001e4090009e4f1000f4ff3600ad
:100ae00011c0b300b0c1b30049ff070010002000df
:100af000b04188009680a8000080fa003400f90018
:100b00004f0478004f03be004f02be004f01be00ed
:100b10004f00be003600f900004006000400fa0055
:100b2000204798008540a90040128000004f7800bf
:100b30002e4090000080fb004012880085c0bf005e
:100b4000644060000004e000fcff32000080fa0016
:100b5000000006000000fa000040eb00efff070075
:100b6000401280000080fb000080fa0000000600b8
:100b70000400fa00e0132000101288000000280092
:100b800000128800e842a900e442a900ca42a80075
:100b9000c642a900c0e2a900c0c2a900d2c2a800f2
:100ba000d2a2a8008680a9009680a8000000eb00d1
:100bb000b0418800e842a9000000eb00000f780077
:100bc000010037001e0fe800b01220009e0f100039
:100bd000fcff3600e842a8000000eb00000f7800a0
:100be000010037001e0fe800b01220009e0f100019
:100bf000fcff360071c0b30050c5b30004ff07000e
:100c000040c5b3000dff0700204798002e4090001c
:100c10000080fb00670060000000e000f8ff3a0081
:100c20000000eb00000f7800010037001e0fe80005
:100c3000703e20009e0f1000fcff360011c0b30074
:100c4000b0c1b300f2fe070011c0b300b0c1b300e1
:100c5000effe070080c0eb0070c0b300ecfe0700a1
:100c600080c0eb0090c0b300e9fe070080c0eb003d
:100c700030c0b300e6fe070080c0eb0050c0b300f8
:100c8000e3fe07000040eb00204798000d0037000e
:100c90002e4090008080fb00808220000080400079
:100ca000904078002e4090000080fb000000400043
:100cb0006b404000d6fe07002e4090000040e80048
:100cc000204798002e409000e74f5000f0ff36007c
:100cd0000000eb00000f7800010037001e0fe80055
:100ce000703e20009e0f1000fcff360041c0b30094
:100cf000d0c6b300c6fe07008040eb00d0c6b300ec
:100d0000c3fe070011c0b30010202000a5fe07009d
:100d100001c8b30020202000a2fe07008040eb00a5
:100d2000302020009ffe070001c9b3006020200092
:100d30009cfe07008040eb007020200099fe070019
:100d400001c1b3008020200096fe070081cbb300d4
:100d500050c7b300aefe070001c4b300d0c7b30054
:100d6000abfe07008040eb00f0c7b300a8fe070011
:100d7000f0202000bcfe0700204798002e40900085
:100d80008080fb00000a200080806000000a2000b4
:100d9000808f5000f6ff3a0000c7b30008ff07003d
:100da00061cfb30050c6b30099fe070031c2b30053
:100db00010c0b30096fe070011c0b300b0c1b3006d
:0c0dc00093fe07000080fa00000006000f
:020000040000fa
:020000040002f8
:04aff800befa00009d
:020000040000fa
:020000040002f8
:04affc007fbf000013
:020000040000fa
:100008000e0700000e0700000e0700000e07000094
:100018000e0700000e0700000e0700000e07000084
:100028000e0700000e0700000e0700000e07000074
:100038000e0700000e0700000e0700000e07000064
:100048000e0700000e0700000e0700000e07000054
:100058000e0700000e0700000e0700000e07000044
:100068000e0700000e0700000e0700000e07000034
:10007800fa0400000e0700000e0700000e0700003b
:100088000e0700000e0700000e0700000e07000014
:100098000e0700000e0700000e0700000e07000004
:1000a8000e0700000e0700000e0700000e070000f4
:1000b8000e0700000e0700000e0700000e070000e4
:1000c8000e0700000e0700000e0700000e070000d4
:1000d8000e0700000e0700000e0700000e070000c4
:1000e8000e070000800200000e0700000e07000047
:1000f8000e0700000e0700000e0700000e070000a4
:100108000e0700000e0700000e0700000e07000093
:100118000e0700000e0700000e0700000e07000083
:100128000e0700000e0700000e0700000e07000073
:100138000e0700000e0700000e0700000e07000063
:100148000e0700000e0700000e0700000e07000053
:100158000e0700000e0700000e0700000e07000043
:100168000e0700000e0700000e0700000e07000033
:100178000e0700000e0700000e0700000e07000023
:100188000e0700000e0700000e0700000e07000013
:100198000e0700000e0700000e0700000e07000003
:1001a8000e0700000e0700000e0700000e070000f3
:1001b8000e0700000e0700000e0700000e070000e3
:1001c8000e0700000e0700000e0700000e070000d3
:1001d8000e0700000e0700000e0700000e070000c3
:1001e8000e0700000e0700000e0700000e070000b3
:0801f8000e0700000e070000d5
:020000040000fa
:100208000e0700000e0700000e0700000e07000092
:100218000e0700000e0700000e0700000e07000082
:100228000e0700000e0700000e0700000e07000072
:100238000e0700000e0700000e0700000e07000062
:100248000e0700000e0700000e0700000e07000052
:100258000e0700000e0700000e0700000e07000042
:100268000e0700000e0700000e0700000e07000032
:10027800fa0400000e0700000e0700000e07000039
:100288000e0700000e0700000e0700000e07000012
:100298000e0700000e0700000e0700000e07000002
:1002a8000e0700000e0700000e0700000e070000f2
:1002b8000e0700000e0700000e0700000e070000e2
:1002c8000e0700000e0700000e0700000e070000d2
:1002d8000e0700000e0700000e0700000e070000c2
:1002e8000e070000800200000e0700000e07000045
:1002f8000e0700000e0700000e0700000e070000a2
:100308000e0700000e0700000e0700000e07000091
:100318000e0700000e0700000e0700000e07000081
:100328000e0700000e0700000e0700000e07000071
:100338000e0700000e0700000e0700000e07000061
:100348000e0700000e0700000e0700000e07000051
:100358000e0700000e0700000e0700000e07000041
:100368000e0700000e0700000e0700000e07000031
:100378000e0700000e0700000e0700000e07000021
:100388000e0700000e0700000e0700000e07000011
:100398000e0700000e0700000e0700000e07000001
:1003a8000e0700000e0700000e0700000e070000f1
:1003b8000e0700000e0700000e0700000e070000e1
:1003c8000e0700000e0700000e0700000e070000d1
:1003d8000e0700000e0700000e0700000e070000c1
:1003e8000e0700000e0700000e0700000e070000b1
:0803f8000e0700000e070000d3
:020000040000fa
:100dcc001c0800000c0000000200000000000000e5
:100ddc0000000000000000000000000000080000ff
:100dec001c000000000000002808000008000000a3
:100dfc000200000007060500040302000155000074
:100e0c003008000008000000000000000000000096
:020000040000fa
:040e1c000000fe00d4
:00000001FF
