:020000040000fa
:080000000002040000000000f2
:020000040000fa
:100400000f802000807f2200000188000000000093
:10041000050007000c000700a20202000000000017
:100420000040da000000fe004440a900c0032000a4
:100430000000e0000300320000002000a00188005e
:100440004440a80000000600e04520000100200014
:100450001600370062004000e080480091018800eb
:100460009001ba0062004000e080480091018800dd
:100470009002ba0062004000e08048000002eb00f9
:100480006028e10005003a008301e900070033001d
:10049000038009000059eb00040037006128e100e7
:1004a000010032000082eb00050007009101880086
:1004b0001001ba000200e000e6ff3a00000005006b
:1004c000910188008002780062004000e0804800ce
:1004d0003559ba008301e900080032002559ba00f5
:1004e0008301e900050032000400e000f4ff32005f
:1004f00015d9ba008301e900f1ff3a0000000600b7
:100500000000fa00b0ff2f00601988000000eb0027
:100510000019880050002000401988000000eb00fe
:100520008019880020002000201988000000eb00be
:100530001019880021e3a800100020000080fa00b4
:10054000000006000600fa00d2c2a800d3a2a8004c
:10055000c002a900c0a2a900e9ff07005d000700d2
:100560000000eb00200798000000eb001007980047
:100570000000370032c2bf00614060000004e000ac
:10058000070032007d000700004f780040c5b3002f
:100590009e4f100002003a00004428006700070048
:1005a000d4c2bf000044b2000004e0002c003a00b6
:1005b000c2a2a8000000eb0020079800030037004b
:1005c0002e0090000000e800200798002e00900008
:1005d000f30f5000faff3400c202a8000000eb0045
:1005e00020079800030037002e0090000000e8006c
:1005f00020079800ae009000f0e12400808f5000aa
:10060000f9ff3400c2a2a9000000eb002007980007
:10061000030037002e0090000000e800200798003b
:100620002e009000f30f5000faff3400c202a90020
:100630000000eb0020079800030037002e00900018
:100640000000e80020079800ae009000f0e12400d0
:10065000808f5000f9ff3400104528003700070054
:10066000d5c2bf000042b2000004e000c1ff3a0062
:100670002023a8000000eb002007980003003700ab
:100680002e0090000000e80020079800ae009000c7
:10069000700c2000808f5000f9ff34002023a90047
:1006a00020c3bf00614060000004e000fcff320096
:1006b00000188000100798001e0090000000e00065
:1006c00002003400c2a2a800aaff3700c2a2a900fb
:1006d000a8ff37000000fa00c0002000c011880009
:1006e0000000280080118800004020009011880040
:1006f000dfa2a900e1a2a8000080fa000000060025
:100700000200fa00000f7800e1c2bf0070406000f4
:100710000004e000fcff3a0033c2bf00624060000a
:100720000004e000fcff3a001e007800a0118800e1
:100730001e0078000080fa00000006000200fa00a7
:10074000000f7800050037001e0078001040780088
:100750000000fb001e0fe800e9ff07001e00780004
:10076000104078000004e000f7ff3a00d0002000bd
:10077000e3ff07000080fa00000006000000fa0016
:10078000e1a2a90032c2bf00614060000004e000a5
:10079000fcff3200e1a2a800b01180000000fb00c5
:1007a0000080fa00000006000600fa00100798001a
:1007b000210798001e009000000f7800efff07004f
:1007c000804078001e009000014878001e009000d4
:1007d000104078000000fb00c9ff07001e009000d9
:1007e00010407800e84f50000e003a001e009000c4
:1007f0009e0f50000b00360000022000c0ff0700d3
:1008000080002000beff07002e0090000000e800de
:10081000200798001e0090000000e90010079800d3
:100820000e0037001e00900010407800ea4f500084
:100830000a0032001e00900010407800ed4f50007a
:10084000090032001e0090000000e8001007980028
:100850002e0090000000e900200798002e00900074
:10086000e10f5000d5ff3c009e0090000040eb00df
:10087000804878001e0078000080fa000000060022
:020000040000fa
:020000040002f8
:04aff800befa00009d
:020000040000fa
:020000040002f8
:04affc007fbf000013
:020000040000fa
:100008006004000060040000600400006004000058
:100018006004000060040000600400006004000048
:100028006004000060040000600400006004000038
:100038006004000060040000600400006004000028
:020000040000fa
:020000040000fa
:100880005265000063650000697600006564000041
:100890002053000074720000696e0000670a0000b7
:1008a000004200006c6900006e6b0000696e000081
:0c08b00067210000212100000a00000068
:020000040000fa
:0408bc000000000038
:020000040000fa
:0408c0000000fe0036
:00000001FF
