:020000040000fa
:080000000002040000000000f2
:020000040000fa
:100400000f802000807f2200000188000000000093
:10041000050007000c000700a20202000000000017
:100420000040da000000fe004440a900c0012000a6
:100430000000e0000300320000002000a00188005e
:100440004440a800000006000065200001002000d4
:100450001600370062004000e080480091018800eb
:100460009001ba0062004000e080480091018800dd
:100470009002ba0062004000e08048000002eb00f9
:100480006028e10005003a008301e900070033001d
:10049000038009000059eb00040037006128e100e7
:1004a000010032000082eb00050007009101880086
:1004b0001001ba000200e000e6ff3a00000005006b
:1004c000910188008002780062004000e0804800ce
:1004d0003559ba008301e900080032002559ba00f5
:1004e0008301e900050032000400e000f4ff32005f
:1004f00015d9ba008301e900f1ff3a0000000600b7
:100500000000fa00b0ff2f00601988000000eb0027
:100510000019880050002000401988000000eb00fe
:100520008019880020002000201988000000eb00be
:100530001019880021e3a800100020000080fa00b4
:10054000000006000600fa00d2c2a800d3a2a8004c
:10055000c002a900c0a2a900e9ff07005e010700d0
:100560006000b80010079800210798000000eb0019
:10057000000f780000003700c202a8001e00e00053
:1005800003003d00a00020009e0f100011003c0061
:100590006000b80010079800210798000600370097
:1005a0001e009000ae00900061004000e080480016
:1005b00010079800210798001e019000ae019000de
:1005c000f069280011002000800f5100818f590030
:1005d000f3ff3400a00020009e0f100003003c0039
:1005e000400120009e0f100011003c006000b80088
:1005f0001007980021079800060037001e009000a1
:10060000ae00900061004000e080480010079800b4
:10061000210798001e019000ae019000f0f825001f
:1006200011002000800f5100818f5900f3ff34002a
:10063000400120009e0f100003003c00e00120005c
:100640009e0f100011003c006000b80010079800d9
:1006500021079800060037001e009000ae009000b1
:1006600061004000e08048001007980021079800d2
:100670001e019000ae019000f087230011002000c1
:10068000800f5100818f5900f3ff3400e0012000fa
:100690009e0f100003003c00800220009e0f1000ff
:1006a00011003c006000b800100798002107980076
:1006b000060037001e009000ae0090006100400070
:1006c000e080480010079800210798001e01900064
:1006d000ae019000f016210011002000800f5100a3
:1006e000818f5900f3ff3400800220009e0f10001c
:1006f00003003c00200320009e0f100011003c006e
:100700006000b80010079800210798000600370025
:100710001e009000ae00900061004000e0804800a4
:1007200010079800210798001e019000ae0190006c
:10073000f0a52e0001002000800f5100818f59008c
:10074000f3ff3400200320009e0f100003003c0044
:10075000c00320009e0f100011003c006000b80094
:100760001007980021079800060037001e0090002f
:10077000ae00900061004000e08048001007980043
:10078000210798001e019000ae019000f0342c006b
:1007900001002000800f5100818f5900f3ff3400c9
:1007a000c00320009e0f100003003c0060042000e6
:1007b0009e0f100011003c006000b8001007980068
:1007c00021079800060037001e009000ae00900040
:1007d00061004000e0804800100798002107980061
:1007e0001e019000ae019000f0c32900010020001e
:1007f000800f5100818f5900f3ff34006004200006
:100800009e0f100003003c00000520009e0f10000a
:1008100011003c006000b800100798002107980004
:10082000060037001e009000ae00900061004000fe
:10083000e080480010079800210798001e019000f2
:10084000ae019000f052270001002000800f5100ff
:10085000818f5900f3ff3400000520009e0f100027
:1008600003003c00a00520009e0f100011003c007a
:100870006000b800100798002107980006003700b4
:100880001e009000ae00900061004000e080480033
:1008900010079800210798001e019000ae019000fb
:1008a000f0e1240001002000800f5100818f5900e9
:1008b000f3ff3400a00520009e0f100003003c0051
:1008c000400620009e0f100011003c006000b800a0
:1008d0001007980021079800060037001e009000be
:1008e000ae00900061004000e080480010079800d2
:1008f000210798001e019000ae019000f0702200c8
:1009000001002000800f5100818f5900f3ff340057
:10091000c202a900d4c2bf000044b2000004e0003b
:100920004a003a00c2a2a8006000b8001007980070
:1009300021079800060037001e009000ae009000ce
:1009400061004000e08048001007980021079800ef
:100950001e019000ae019000300120000100200037
:10096000800f5100818f5900f3ff3400c202a800ac
:100970006000b800100798002107980006003700b3
:100980001e009000ae00900061004000e080480032
:1009900010079800210798001e019000ae019000fa
:1009a000f0e1240001002000800f5100818f5900e8
:1009b000f3ff3400c2a2a9006000b800100798003d
:1009c00021079800060037001e009000ae0090003e
:1009d00061004000e080480010079800210798005f
:1009e0001e019000ae0190003001200001002000a7
:1009f000800f5100818f5900f3ff3400c202a9001b
:100a00006000b80010079800210798000600370022
:100a10001e009000ae00900061004000e0804800a1
:100a200010079800210798001e019000ae01900069
:100a3000f0e1240001002000800f5100818f590057
:100a4000f3ff3400206428003d000700d5c2bf003a
:100a50000042b2000004e000c7fe3a002023a800d4
:100a60006000b800100798002107980006003700c2
:100a70001e009000ae00900061004000e080480041
:100a800010079800210798001e019000ae01900009
:100a9000700c200001002000800f5100818f590050
:100aa000f3ff34002023a90020c3bf006140600091
:100ab0000004e000fcff320000188000000f780006
:100ac0001e00e00002003400c2a2a800aafe370007
:100ad000c2a2a900a8fe37000000fa00c000200052
:100ae000c01188000000280080118800004020000c
:100af00090118800dfa2a900e1a2a8000080fa00fe
:100b0000000006000200fa00000f7800e1c2bf00fa
:100b1000704060000004e000fcff3a0033c2bf00f8
:100b2000624060000004e000fcff3a001e00780014
:100b3000a01188001e0078000080fa000000060066
:100b40000200fa00000f7800050037001e00780050
:100b5000104078000000fb001e0fe800e9ff0700ce
:100b60001e007800104078000004e000f7ff3a0013
:100b7000d0002000e3ff07000080fa00000006001c
:100b80000000fa00e1a2a90032c2bf00614060008b
:100b90000004e000fcff3200e1a2a800b0118000d8
:100ba0000000fb000080fa00000006000600fa00ca
:100bb00010079800210798001e009000000f780091
:100bc000efff0700804078001e0090000148780089
:100bd0001e009000104078000000fb00c9ff0700d5
:100be0001e00900010407800e84f50000e003a00c0
:100bf0001e0090009e0f50000b00360000022000e7
:100c0000c0ff070080002000beff07002e009000fc
:100c10000000e800200798001e0090000000e90096
:100c2000100798000e0037001e009000104078005a
:100c3000ea4f50000a0032001e0090001040780079
:100c4000ed4f5000090032001e0090000000e80047
:100c5000100798002e0090000000e900200798007f
:100c60002e009000e10f5000d5ff3c009e00900048
:100c70000040eb00804878001e0078000080fa00f9
:040c8000000006006a
:020000040000fa
:020000040002f8
:04aff800befa00009d
:020000040000fa
:020000040002f8
:04affc007fbf000013
:020000040000fa
:100008005206000052060000520600005206000088
:100018005206000052060000520600005206000078
:100028005206000052060000520600005206000068
:100038005206000052060000520600005206000058
:020000040000fa
:020000040000fa
:100c8400426c0000696e00006b6900006e67000032
:0c0c940021210000210a000000000000e7
:020000040000fa
:040ca0000000000050
:020000040000fa
:040ca4000000fe004e
:00000001FF
