:020000040000fa
:080000000002040000000000f2
:020000040000fa
:100400000f802000807f2200000188000000000093
:10041000050007000c000700a20202000000000017
:100420000040da000000fe004440a9000000200067
:100430000000e0000300320000002000a00188005e
:100440004440a80000000600a03420000100200065
:100450001600370062004000e080480091018800eb
:100460009001ba0062004000e080480091018800dd
:100470009002ba0062004000e08048000002eb00f9
:100480006028e10005003a008301e900070033001d
:10049000038009000059eb00040037006128e100e7
:1004a000010032000082eb00050007009101880086
:1004b0001001ba000200e000e6ff3a00000005006b
:1004c000910188008002780062004000e0804800ce
:1004d0003559ba008301e900080032002559ba00f5
:1004e0008301e900050032000400e000f4ff32005f
:1004f00015d9ba008301e900f1ff3a0000000600b7
:100500000200fa00b0ff2f00601988000000eb0025
:100510000019880050002000401988000000eb00fe
:100520008019880020002000201988000000eb00be
:100530001019880021e3a800100020000080fa00b4
:10054000000006000400fa00d2c2a800d3a2a8004e
:10055000c002a900c0a2a900e9ff07000000eb004b
:10056000100798000000eb00000f7800e4ff070080
:1005700000003700d4c2bf000044b2000004e00015
:100580002a003a00c2a2a8000000eb001007980061
:10059000030037001e0090000000e80010079800dc
:1005a0001e009000f30f5000faff3400c202a800b2
:1005b0000000eb0010079800030037001e009000b9
:1005c0000000e800100798009e009000f0e1240071
:1005d000808f5000f9ff3400c2a2a9000000eb0098
:1005e00010079800030037001e0090000000e8008c
:1005f000100798001e009000f30f5000faff34001f
:10060000c202a9000000eb001007980003003700a9
:100610001e0090000000e800100798009e00900067
:10062000f0e12400808f5000f9ff3400d5c2bf00f4
:100630000042b2000004e000ceff3a002023a800f0
:100640000000eb0010079800030037001e00900028
:100650000000e800100798009e009000f0e12400e0
:10066000808f5000f9ff34002023a90020c3bf0071
:10067000614060000004e000fcff320000188000d0
:10068000000f78001e00e000baff3200c2a2a800ee
:04069000b8ff370078
:020000040000fa
:020000040002f8
:04aff800befa00009d
:020000040000fa
:020000040002f8
:04affc007fbf000013
:020000040000fa
:100008004c0300004c0300004c0300004c030000ac
:100018004c0300004c0300004c0300004c0300009c
:100028004c0300004c0300004c0300004c0300008c
:100038004c0300004c0300004c0300004c0300007c
:020000040000fa
:020000040000fa
:040694000000000062
:020000040000fa
:040698000000fe0060
:00000001FF
